:1000000011241FBECFEFD0E1DEBFCDBF1CE0A0E0CA
:10001000B1E0E0E6F6E202C005900D92AE34B10721
:10002000D9F71CE0AEE4BCE001C01D92A23CB107D0
:10003000E1F70E94290D0000000000000000000010
:100040000000000000000F9300E00093900008E023
:1000500009B908E10AB906E0009395000F910895E7
:100060005D9BFECF8CB908955F9BFECF8CB190E075
:100070000895DF93CF93D92FC82F8991882311F04A
:10008000EFDFFBCFCF91DF910895CF93C82F8A3058
:1000900019F48DE00E9445008C2F0E94300080E012
:1000A00090E0CF9108950E942300EAEBFCE08AE201
:1000B00091E0918380839383828308958EE694E018
:1000C0000C94390088E894E00C94390087EA94E0B5
:1000D0000C94390085EC94E00C943900AF92BF92F7
:1000E000CF92DF92EF92FF920F931F93CF93DF9304
:1000F0007C016B0181E0E816F10401F580EE94E0EB
:100100000E940C10C8E3D1E002E015E08B818F93D0
:100110008A818F9389818F9388818F931F930F9307
:100120000E94F20F26960F900F900F900F900F9055
:100130000F90E1E0C035DE0749F72DC0FB01A2803A
:10014000B38008E311E0C0E0D0E0B501F8018081A0
:1001500091810E94B30F892BC1F486E08C9FF0013E
:100160008D9FF00D1124E85CFE4F0480F581E02D99
:10017000B601C701DF91CF911F910F91FF90EF90D2
:10018000DF90CF90BF90AF90099421960A5F1F4FE8
:10019000C430D105D1F6DF91CF911F910F91FF901F
:1001A000EF90DF90CF90BF90AF9008950F931F9383
:1001B000CF93DF931092500CC0E5DCE08E010E94DB
:1001C00034008D3079F0F80101900020E9F7319783
:1001D000E055FC40E336F10590F7899318820E94C0
:1001E0003000EDCF82EA95E00E94390080E59CE086
:1001F000DF91CF911F910F9108950F931F93CF938C
:10020000DF9384E190E00E94780D80934E0C9093F0
:100210004F0CEC018C010C5E1F4F8AE090E00E94B5
:10022000780D89939993C017D107B9F7DF91CF91D2
:100230001F910F910895AF92BF92CF92DF92EF92EC
:10024000FF920F931F93CF93DF93CDB7DEB7C456C2
:10025000D1090FB6F894DEBF0FBECDBF6B015A01B6
:1002600044E650E0BC01CE0101960E94BC0F69E853
:1002700075E0CE0101960E94AF0F009721F4F601C0
:10028000118210822BC0E12CF12C00E010E00F5FF6
:100290001F4FE0914E0CF0914F0CEE0DFF1D4AE008
:1002A00050E0BC01808191810E94BC0F69E875E03B
:1002B00080E090E00E94AF0F009731F0F2E0EF0E87
:1002C000F11C0A30110519F7F601118300838091A2
:1002D0004E0C90914F0CF50191838083CC59DF4FE8
:1002E0000FB6F894DEBF0FBECDBFDF91CF911F9147
:1002F0000F91FF90EF90DF90CF90BF90AF90089557
:100300008F929F92AF92BF92CF92DF92EF92FF9225
:100310000F931F93CF93DF9300D000D0CDB7DEB7FC
:100320008AE291E080509140959587952BEA3AEAD0
:10033000829F5001839FB00C929FB00C11248CE8D7
:1003400095E00E9439000E94D600AE014F5F5F4FDA
:10035000BE016D5F7F4F0E941B018B809C808114CA
:10036000910449F009811A81C12CD12C80E0E82E3A
:1003700081E0F82E0BC084E995E00E9439002CC082
:10038000BFEFCB1ADB0AE6E0EE0EF11CD801CA146F
:10039000DB0494F46D917C91F701808191810E943E
:1003A000B30F892B69F7D7011496ED91FC9115973E
:1003B000B801C401099510C011968C9111978F93C3
:1003C0008C918F9385EA95E09F938F930E94F20F13
:1003D0000F900F900F900F900F900F900F900F9025
:1003E000DF91CF911F910F91FF90EF90DF90CF9011
:1003F000BF90AF909F908F90089586EC95E00E94FB
:100400000C100C948001CF93DF93CDB7DEB76997C2
:100410000FB6F894DEBF0FBECDBF83EF95E00E940C
:100420000C108AE089831E821F821886198683E059
:1004300090E0A0E0B0E08A839B83AC83BD8360E062
:1004400070E0CE0101960E949A0A892B29F083E080
:1004500096E00E940C10FFC0898D8F93888D8F933A
:100460008F898F938E898F938D898F938C898F93AA
:100470008B898F938A898F9389898F9388898F93AA
:100480008F858F938E858F938D858F938C858F939A
:100490008B858F938A858F9383E196E09F938F93CB
:1004A0000E94F20F8A859B85AC85BD858B2F99278D
:1004B000AA27BB27BF93AF939F938F9386E396E0C2
:1004C0009F938F930E94F20F4B858C8550E060E0E4
:1004D00070E07F936F935F934F9390E0A0E0B0E064
:1004E000BF93AF939F938F9381E596E09F938F93F4
:1004F0000E94F20F8E859F85A889B9890FB6F8945E
:10050000DEBF0FBECDBFAC01BD01552766277727E3
:100510007F936F935F934F9350E060E070E07F9321
:100520006F935F939F9350E060E070E07F936F93D1
:100530005F93AF938B2F9927AA27BB27BF93AF93C6
:100540009F938F938A859B85AC85BD859927AA2724
:10055000BB27BF93AF939F938F938CE696E09F93B7
:100560008F930E94F20F8A899B89AC89BD894B2F9A
:100570005527662777274F705527662777277F935C
:100580006F935F934F935CE1B695A7959795879589
:100590005A95D1F7BF93AF939F938F938DE896E0D1
:1005A0009F938F930E94F20F0FB6F894DEBF0FBE99
:1005B000CDBF8E899F89A88DB98D8B2F9927AA27AA
:1005C000BB27BF93AF939F938F938A899B89AC89F5
:1005D000BD89BB27BF93AF939F938F9389EA96E022
:1005E0009F938F930E94F20F8E899F89A88DB98D5A
:1005F000AC01BD01ECE07695679557954795EA9576
:10060000D1F75527662777274053584F6F4F7F4FB5
:100610007F936F935F934F93892F9A2FAB2FBB27B5
:100620008F709927AA27BB270197A109B109880FC5
:10063000991FFC01EA5AFE4F21812F9380818F93ED
:1006400088EC96E09F938F930E94F20F0FB6F89478
:10065000DEBF0FBECDBF69960FB6F894DEBF0FBEEA
:10066000CDBFDF91CF9108954F925F926F927F92AD
:100670008F929F92AF92BF92CF92DF92EF92FF92B2
:100680000F931F93CF93DF93CDB7DEB769970FB664
:10069000F894DEBF0FBECDBF83EF95E00E940C1033
:1006A00089E089831E821F821886198683E090E084
:1006B000A0E0B0E08A839B83AC83BD8360E070E000
:1006C000CE0101960E949A0A892B19F080E397E0E7
:1006D00047C5898D8F93888D8F938F898F938E894E
:1006E0008F938D898F938C898F938B898F938A8930
:1006F0008F9389898F9388898F938F858F938E8528
:100700008F938D858F938C858F938B858F938A851F
:100710008F9383E196E09F938F930E94F20F8A85D7
:100720009B85AC85BD857EE1B695A7959795879508
:100730007A95D1F70FB6F894DEBF0FBECDBF009704
:10074000A105B10509F0D4C28FE397E00E940C1017
:100750008C8590E0A0E0B0E0BF93AF939F938F9320
:100760008FE497E09F938F930E94F20F8B8590E028
:10077000A0E0B0E0BF93AF939F938F9387E697E09D
:100780009F938F930E94F20F8A859B85AC85BD85D0
:100790009927AA27BB27BF93AF939F938F938FE788
:1007A00097E09F938F930E94F20F8E859F85A88973
:1007B000B98904E1B695A795979587950A95D1F7DC
:1007C000BF93AF939F938F9387E997E09F938F9306
:1007D0000E94F20F8E859F85A889B989CD01AA272D
:1007E000BB278F709927AA27BB2701E010E02801BB
:1007F000082E02C0440C551C0A94E2F7052C000C8C
:10080000660877087F926F925F924F92BF93AF9383
:100810009F938F938FEA97E09F938F930E94F20F9D
:100820000FB6F894DEBF0FBECDBF8E859F85A88919
:10083000B9893FE0B695A795979587953A95D1F7F1
:1008400081709927AA27BB27BF93AF939F938F935C
:1008500089EC97E09F938F930E94F20F8E859F857E
:10086000A889B9894EE0B695A795979587954A9539
:10087000D1F781709927AA27BB27BF93AF939F9386
:100880008F938FED97E09F938F930E94F20F8E8549
:100890009F85A889B9895DE0B695A79597958795B5
:1008A0005A95D1F781709927AA27BB27BF93AF9399
:1008B0009F938F9385EF97E09F938F930E94F20F02
:1008C0008E859F85A889B9896CE0B695A79597957F
:1008D00087956A95D1F781709927AA27BB27BF937F
:1008E000AF939F938F938BE098E09F938F930E9499
:1008F000F20FCE84DF84E888F98893E0D922EE24D1
:10090000FF24D701C60172E0880F991FAA1FBB1FE1
:100910007A95D1F7CA88DB88EC88FD88EEE1F694F9
:10092000E794D794C794EA95D1F7C82AD92AEA2A36
:10093000FB2AFF92EF92DF92CF9281E298E09F93A1
:100940008F930E94F20F8A899B89AC89BD89FBE154
:10095000B695A79597958795FA95D1F787709927BA
:10096000AA27BB27BF93AF939F938F9389E398E008
:100970009F938F930E94F20F0FB6F894DEBF0FBEC5
:10098000CDBF8A899B89AC89BD898B2F9927AA27DE
:10099000BB2787709927AA27BB27BF93AF939F9345
:1009A0008F938FE498E09F938F930E94F20F8A8930
:1009B0009B89AC89BD8935E1B695A79597958795B3
:1009C0003A95D1F787709927AA27BB27BF93AF9392
:1009D0009F938F9385E698E09F938F930E94F20FE9
:1009E0008A899B89AC89BD8942E1B695A79597957F
:1009F00087954A95D1F787709927AA27BB27BF9378
:100A0000AF939F938F938BE798E09F938F930E9470
:100A1000F20F8A899B89AC89BD895FE0B695A7955D
:100A2000979587955A95D1F787709927AA27BB275D
:100A30009C012E5F3F4F480102C0880C991C2A95EB
:100A4000E2F7092C000CAA08BB08BF92AF929F9254
:100A50008F92BF93AF939F938F9381E998E09F9379
:100A60008F930E94F20F8A899B89AC89BD896EE0C1
:100A7000B695A795979587956A95D1F7817099272F
:100A8000AA27BB27BF93AF939F938F938BEA98E0DE
:100A90009F938F930E94F20F0FB6F894DEBF0FBEA4
:100AA000CDBF8A899B89AC89BD8977E0B695A7952A
:100AB000979587957A95D1F78F779927AA27BB279E
:100AC000BF93AF939F938F9381EC98E09F938F9305
:100AD0000E94F20F8A899B89AC89BD898F779927FB
:100AE000AA27BB27BF93AF939F938F9389ED98E07D
:100AF0009F938F930E94F20F8E899F89A88DB98D45
:100B00008827B7FD83959927AA27BB27BF93AF9363
:100B10009F938F9381EF98E09F938F930E94F20FA2
:100B20008E899F89A88DB98DFAE1B695A79597957D
:100B30008795FA95D1F787709927AA27BB27BF9386
:100B4000AF939F938F9387E099E09F938F930E9439
:100B5000F20F8E899F89A88DB98D16E1B695A7955C
:100B6000979587951A95D1F78F709927AA27BB2754
:100B7000BF93AF939F938F938DE199E09F938F9352
:100B80000E94F20F8E899F89A88DB98D05E1B695D7
:100B9000A795979587950A95D1F781709927AA27E8
:100BA000BB27BF93AF939F938F9383E399E09F936A
:100BB0008F930E94F20F0FB6F894DEBF0FBECDBF29
:100BC0008E899F89A88DB98D2FE0B695A7959795A9
:100BD00087952A95D1F781709927AA27BB27BF93BC
:100BE000AF939F938F9389E499E09F938F930E9493
:100BF000F20F8E899F89A88DB98D3EE0B695A79595
:100C0000979587953A95D1F781709927AA27BB27A1
:100C1000BF93AF939F938F938FE599E09F938F93AB
:100C20000E94F20F8E899F89A88DB98D4DE0B695EF
:100C3000A795979587954A95D1F781709927AA2707
:100C4000BB27BF93AF939F938F9385E799E09F93C3
:100C50008F930E94F20F8E899F89A88DB98D5CE0D9
:100C6000B695A795979587955A95D1F7817099274D
:100C7000AA27BB27BF93AF939F938F938BE899E0ED
:100C80009F938F930E94F20F8E899F89A88DB98DB3
:100C90006AE0B695A795979587956A95D1F7837081
:100CA0009927AA27BB27BF93AF939F938F9381EA7E
:100CB00099E09F938F930E94F20FA70196012F5FF7
:100CC0003F4F4F4F5F4FC301B2010E942E0D9B015A
:100CD000AC01C501B4010E942E0D9F938F937F93A9
:100CE0006F9387EB99E09F938F930E94F20F30C22E
:100CF0000197A105B10509F031C28FEC99E00E947E
:100D00000C108C8590E0A0E0B0E0BF93AF939F9370
:100D10008F938FE497E09F938F930E94F20F8B85C0
:100D200090E0A0E0B0E0BF93AF939F938F9387E6EE
:100D300097E09F938F930E94F20F8A859B85AC85E5
:100D4000BD859927AA27BB27BF93AF939F938F9306
:100D50008FE797E09F938F930E94F20F8E859F8578
:100D6000A889B98924E1B695A795979587952A957D
:100D7000D1F7BF93AF939F938F9387E997E09F93AA
:100D80008F930E94F20F8E859F85A889B989CD0126
:100D9000AA27BB278F709927AA27BB27BF93AF939A
:100DA0009F938F938FED99E09F938F930E94F20F03
:100DB0008E859F85A889B9894FE0B695A7959795A7
:100DC00087954A95D1F781709927AA27BB27BF93AA
:100DD000AF939F938F9389EC97E09F938F930E949B
:100DE000F20F0FB6F894DEBF0FBECDBF8E859F8584
:100DF000A889B9895EE0B695A795979587955A9584
:100E0000D1F781709927AA27BB27BF93AF939F93F0
:100E10008F938FED97E09F938F930E94F20F8E85B3
:100E20009F85A889B9896DE0B695A795979587950F
:100E30006A95D1F781709927AA27BB27BF93AF93F3
:100E40009F938F9385EF97E09F938F930E94F20F6C
:100E50008E859F85A889B9897CE0B695A7959795D9
:100E600087957A95D1F781709927AA27BB27BF93D9
:100E7000AF939F938F938BE098E09F938F930E9403
:100E8000F20F8E849F84A888B9883FE38322992437
:100E9000AA24BB24D401992788278A889B88AC88F8
:100EA000BD884501AA24BB24882A992AAA2ABB2ADC
:100EB000BF92AF929F928F9285EF99E09F938F930D
:100EC0000E94F20F8A899B89AC89BD891EE0B69584
:100ED000A795979587951A95D1F781709927AA2795
:100EE000BB27BF93AF939F938F938BEA98E09F9319
:100EF0008F930E94F20F8A899B89AC89BD8907E094
:100F0000B695A795979587950A95D1F78F779927E5
:100F1000AA27BB27BF93AF939F938F9381EC98E051
:100F20009F938F930E94F20F0FB6F894DEBF0FBE0F
:100F3000CDBF8A899B89AC89BD898F779927AA27DC
:100F4000BB27BF93AF939F938F9389ED98E09F93B7
:100F50008F930E94F20F8E899F89A88DB98D882763
:100F6000B7FD83959927AA27BB27BF93AF939F937C
:100F70008F9381EF98E09F938F930E94F20F8E8959
:100F80009F89A88DB98D3AE1B695A79597958795D4
:100F90003A95D1F787709927AA27BB27BF93AF93BC
:100FA0009F938F9387E099E09F938F930E94F20F16
:100FB0008E899F89A88DB98D46E1B695A79597959D
:100FC00087954A95D1F78F709927AA27BB27BF939A
:100FD000AF939F938F938DE199E09F938F930E949E
:100FE000F20F8E899F89A88DB98D55E1B695A79589
:100FF000979587955A95D1F781709927AA27BB278E
:10100000BF93AF939F938F9383E399E09F938F93C5
:101010000E94F20F8E899F89A88DB98D6FE0B695D9
:10102000A795979587956A95D1F781709927AA27F3
:10103000BB27BF93AF939F938F9389E499E09F93CE
:101040008F930E94F20F0FB6F894DEBF0FBECDBF94
:101050008E899F89A88DB98D7EE0B695A7959795C5
:1010600087957A95D1F781709927AA27BB27BF93D7
:10107000AF939F938F938FE599E09F938F930E94F7
:10108000F20F8E899F89A88DB98DEDE0B695A79551
:1010900097958795EA95D1F781709927AA27BB275D
:1010A000BF93AF939F938F9385E799E09F938F931F
:1010B0000E94F20F8E899F89A88DB98DFCE0B695AC
:1010C000A79597958795FA95D1F781709927AA27C3
:1010D000BB27BF93AF939F938F938BE899E09F9328
:1010E0008F930E94F20F8E899F89A88DB98D1AE087
:1010F000B695A795979587951A95D1F783709927F7
:10110000AA27BB27BF93AF939F938F9381EA99E060
:101110009F938F930E94F20F3FEF831A930AA30AC3
:10112000B30A9401A50160E070E080E090E003E183
:101130000E94500D9F938F937F936F935F934F9374
:101140003F932F938DE09AE09F938F930E94F20F2D
:101150000FB6F894DEBF0FBECDBF04C087E29AE0A1
:101160000E940C1069960FB6F894DEBF0FBECDBF7B
:10117000DF91CF911F910F91FF90EF90DF90CF9073
:10118000BF90AF909F908F907F906F905F904F90A7
:1011900008956F927F928F929F92AF92BF92CF925B
:1011A000DF92EF92FF920F931F93CF93DF93CDB710
:1011B000DEB7C752D2400FB6F894DEBF0FBECDBF28
:1011C0007B018C011F938F93FF926F938EE39AE0C4
:1011D0009F938F930E94F20F81E1CF5FDD4F888351
:1011E000C150D240CA5FDD4FE882C650D240C95FCD
:1011F000DD4FF882C750D240C85FDD4F0883C8502A
:10120000D240C75FDD4F1883C950D24081E090E0E3
:10121000A0E0B0E0CE5FDD4F88839983AA83BB83D3
:10122000C250D2408E010F5F1F4FC65EDD4F198343
:101230000883CA51D240C05EDD4F88839983AA8358
:10124000BB83C052D24040E052E060E070E0CC5D31
:10125000DD4F488359836A837B83C452D240C45E86
:10126000DD4F88839983AA83BB83CC51D240BE01D2
:10127000665E7D4FCE018F5F9D4F0E949A0A0F9050
:101280000F900F900F900F900F90892B59F4E12C35
:10129000F12C8AE6682E8AE0782E92E7A92E9AE051
:1012A000B92E03C088E59AE050C0FF92EF927F927A
:1012B0006F920E94F20F0F900F900F900F904801C5
:1012C000C12CD12CF40181914F011F928F93BF92B9
:1012D000AF920E94F20F0F900F900F900F90C601E7
:1012E00083709927039719F480E20E943000FFEF82
:1012F000CF1ADF0A80E1C816D10421F787E79AE008
:101300000E9439004801C12CD12CF40181914F0178
:1013100090EE980F9F3508F08EE2082E000C990B86
:101320000E940610FFEFCF1ADF0A80E1C816D10431
:1013300061F7E0E1EE0EF11C005F1F4FE114F2E0F7
:10134000FF0609F0B2CF83E396E00E940C10C95D5E
:10135000DD4F0FB6F894DEBF0FBECDBFDF91CF914A
:101360001F910F91FF90EF90DF90CF90BF90AF90C3
:101370009F908F907F906F900895CF92DF92EF9221
:10138000FF920F931F93CF93DF938230910514F157
:10139000EB018C0140E050E060E070E08A819B81CD
:1013A0000E94990E6B017C0102301105B1F040E002
:1013B00050E060E070E08C819D810E94990E611583
:1013C00071058105910549F062307105810591052E
:1013D00080F403C0C12CD12C7601C701B601DF9186
:1013E000CF911F910F91FF90EF90DF90CF900C94D1
:1013F000C908DF91CF911F910F91FF90EF90DF907F
:10140000CF900895CF92DF92EF92FF920F931F93A8
:10141000CF93DF938AE291E0805091409595879534
:101420002BEA3AEA829F6001839FD00C929FD00CF6
:10143000112400E010E0C0E0D1E033E9E32E3AE00F
:10144000F32E0C151D05B4F48B818F938A818F9335
:1014500089818F9388818F93FF92EF920E94F20F80
:101460000F5F1F4F26960F900F900F900F900F90C9
:101470000F90E7CFDF91CF911F910F91FF90EF90E9
:10148000DF90CF90089580EA9AE00C940C108EEAD9
:101490009AE00C940C10DB01460F571FA417B507F8
:1014A00079F02D91E92FFF27E227EE0FFF1FE25978
:1014B000FE4F20813181982F882782279327EECFF6
:1014C0000895DB01460F571FA417B50751F09D91F2
:1014D000E82FF0E0EE0FFF1FE927E259FC4F808173
:1014E000F3CF08950E9453000E94FD000E94070D53
:1014F00086E09BE09F938F930E94F20F81E19BE037
:101500009F938F938AE19BE09F938F9386E29BE06A
:101510009F938F930E94F20F8DB79EB708960FB6D8
:10152000F8949EBF0FBE8DBF0C94DA0B80E49BE055
:101530000C94FD01AF92BF92CF92DF92EF92FF9297
:101540000F931F93CF93DF93CDB7DEB729970FB6D5
:10155000F894DEBF0FBECDBF8C016B01C098FC01BB
:10156000958126813781408580811986FF24FA94F0
:10157000F9828F7380648A834B833C832D839E839F
:1015800045E050E0BE016E5F7F4F80E00E94610A3F
:10159000880F81608F83F88648E050E060E070E05B
:1015A000CE0101960E94120D98E0A92EB12C41E0C7
:1015B00050E0BE01675F7F4F80E090E00E94120D17
:1015C000F984F7FE04C0F1E0AF1AB10881F7AF2C3F
:1015D000B12C1F92FF9287E59BE09F938F930E940F
:1015E000F20F0F900F900F900F908FEFF81207C02F
:1015F00085E69BE00E940C1081E090E0C9C0F3FEFC
:1016000007C089E79BE00E940C1083E090E0C0C017
:10161000E894A0F8AB2829F08AE89BE00E940C101F
:10162000B2C0F80181819281A381B4810397A105A1
:10163000B10509F05DC08AE99BE00E940C107801B9
:10164000F9E0EF0EF11C198688EEC82E83E0D82E43
:1016500041E050E0BE01675F7F4F80E090E00E9474
:10166000120D89858F3F21F089858E3F61F02FC053
:101670008FE99FE00197F1F700C0000091E0C91ADF
:10168000D10831F7F1CF40E150E0B70180E090E0C0
:101690000E94120D42E050E0BE016F5F7F4F80E07C
:1016A00090E00E94120D40E150E0B70180E090E030
:1016B0000E944B0A90E098278927982729813A8130
:1016C0008217930721F08CEA9BE00E940C10F7012F
:1016D000075E1F4F60817181828193810E943E0D60
:1016E0006193719381939193E017F10799F74EC03D
:1016F000CD2809F046C0F80180818D3039F128F4F9
:10170000813041F0883069F041C0893219F08A3364
:1017100041F03CC0F0FC27C080E090E0A0E0B0E8E1
:101720002AC0B801675F7F4F44E050E080E090E05E
:101730000E94120DF80161857285838594850E944F
:101740003E0D618772878387948720C041E050E017
:10175000B801675F7F4F80E090E00E94120DF801B2
:101760008185882321F080E090E0DC0104C080E0E6
:1017700091E0A0E0B0E0F80181879287A387B48769
:1017800005C0FF2019F084E090E002C080E090E006
:10179000C09A29960FB6F894DEBF0FBECDBFDF9179
:1017A000CF911F910F91FF90EF90DF90CF90BF905E
:1017B000AF9008952F923F924F925F926F927F92D7
:1017C0008F929F92AF92BF92CF92DF92EF92FF9251
:1017D0000F931F93CF93DF93CDB7DEB769970FB603
:1017E000F894DEBF0FBECDBFC09A2FEF81EE94E01C
:1017F000215080409040E1F700C000004AE050E0F6
:1018000060E070E080E090E00E94120DEFE9FFE000
:101810003197F1F700C0000019821E821F821886DE
:1018200019861A821B821C821D8260E070E0CE0144
:1018300001960E949A0A009731F4EFE3FFE1319795
:10184000F1F700C00000892B19F08FEB9BE07CC002
:1018500088E089838AEA91E0A0E0B0E08E839F83EC
:10186000A887B98788E090E0A0E0B0E08A839B83F6
:10187000AC83BD8360E070E0CE0101960E949A0ABD
:10188000009709F087C08AEC9BE09F938F930E949A
:10189000F20F8A859B85AC85BD859170AA27BB27F1
:1018A0000F900F908A3A9140A105B10509F46BC0E1
:1018B0008BE497E00E940C1002E010E00115110586
:1018C00009F044C089EE282E83E0382EC12CD12C9B
:1018D0007601C394812C912CA12C20E4B22E34E00B
:1018E000432E512C612C712C27E329831E821F82E9
:1018F00018861986CA82DB82EC82FD8260E070E085
:10190000CE0101960E949A0A009709F050C089E220
:1019100089838E829F82A886B9864A825B826C8286
:101920007D8260E070E0CE0101960E949A0A0097E5
:1019300009F03DC08A859B85AC85BD85B7FF2CC06D
:10194000012BD1F183EE9BE00E940C1083E29CE01E
:101950000E940C1069960FB6F894DEBF0FBECDBF83
:10196000DF91CF911F910F91FF90EF90DF90CF907B
:10197000BF90AF909F908F907F906F905F904F90AF
:101980003F902F9008958BED99E00E940C1000E09D
:1019900010E094CF8C0192CF91E0291A310849F0E0
:1019A000EFE9FFE03197F1F700C000009DCF8C0117
:1019B000C7CF02E010E0C4CF8AE389831E821F8272
:1019C0001886198684E090E0A0E0B0E08A839B83CB
:1019D000AC83BD8360E070E0CE0101960E949A0A5C
:1019E000892B09F0B3CF8FEE9BE09F938F930E94DA
:1019F000F20F8A859B85AC85BD850F900F90B6FF51
:101A000003C08AE09CE0A0CF87E19CE09DCFBB981B
:101A100087B3876087BB81E58DB9689A8DE39CE0C9
:101A20000C940C104150510998F0009721F0FC01E2
:101A30002081019601C02FEF2FB9779BFECF2FB1E8
:101A40006115710579F3FB0120836F5F7F4FEACF4A
:101A500008950E94720A0E94960AFDCFDB018F93BF
:101A60009F930E94450DBF91AF91A29F800D911D44
:101A7000A39F900DB29F900D11240895692796277A
:101A8000692778278727782708950E94690DA59FE1
:101A9000900DB49F900DA49F800D911D1124089569
:101AA0000F93083090F0982F872F762F652F542FA3
:101AB000432F322F22270850F4CF220F331F441F09
:101AC000551F661F771F881F991F0A95B2F70F9140
:101AD0000895A29FB001B39FC001A39F700D811D07
:101AE0001124911DB29F700D811D1124911D089527
:101AF0000F931F93CF93DF938230910510F482E010
:101B000090E0E091B80CF091B90C20E030E0A0E05A
:101B1000B0E0309719F1408151810281138148175B
:101B20005907C8F08417950769F4109731F0129699
:101B30000C93129713961C9327C00093B80C109324
:101B4000B90C22C02115310519F04217530718F4BA
:101B50009A01BD01EF01DF01F801DBCF211531054D
:101B6000F9F0281B390B2430310580F48A819B81E0
:101B70006115710521F0FB019383828304C090936A
:101B8000B90C8093B80CFE01329644C0FE01E20FFE
:101B9000F31F8193919322503109398328833AC0EE
:101BA0002091B60C3091B70C232B41F420915201B7
:101BB000309153013093B70C2093B60C2091500113
:101BC000309151012115310541F42DB73EB74091B7
:101BD000540150915501241B350BE091B60CF09146
:101BE000B70CE217F307A0F42E1B3F0B2817390799
:101BF00078F0AC014E5F5F4F2417350748F04E0F69
:101C00005F1F5093B70C4093B60C8193919302C021
:101C1000E0E0F0E0CF01DF91CF911F910F910895A7
:101C2000CF93DF93009709F481C0FC0132971382B0
:101C30001282A091B80CB091B90C109781F4208158
:101C40003181820F931F2091B60C3091B70C281769
:101C5000390751F5F093B70CE093B60C67C0ED016E
:101C600020E030E0CE17DF0740F44A815B819E011F
:101C700041155105F1F0EA01F5CFD383C2834081CC
:101C80005181840F951FC817D90759F4888199810C
:101C9000840F951F0296918380838A819B81938311
:101CA00082832115310529F4F093B90CE093B80C27
:101CB0003DC0E901FB83EA8349915991C40FD51FC7
:101CC000EC17FD0761F480819181840F951F0296C6
:101CD000E90199838883828193819B838A83E0E0F1
:101CE000F0E012968D919C911397009719F0FD01E9
:101CF000DC01F7CF8D919C9111979D012E5F3F4F95
:101D0000820F931F2091B60C3091B70C281739071A
:101D100069F4309729F41092B90C1092B80C02C0F3
:101D200013821282B093B70CA093B60CDF91CF91BF
:101D300008953F924F925F926F927F928F929F92FF
:101D4000AF92BF92CF92DF92EF92FF920F931F93C9
:101D5000CF93DF935C016B017A016115710519F076
:101D6000FB0191838083E114F10429F0C7010297FC
:101D7000839708F0C9C0E5012196F5011081812FF4
:101D800090E00E94A60F892B11F05E01F4CF1D3266
:101D900029F42196F501118101E007C01B3221F4DD
:101DA000E5012296F501118100E0E114F104B1F0A2
:101DB000F0E1EF16F10429F4B0C010E3E114F104EE
:101DC00001F12AE0E216F104B1F180E1E816F10434
:101DD00071F0E8E0EE16F104F1F413C0103341F5B0
:101DE00088818F7D883549F7198122960260F0E15C
:101DF000EF2EF12C88248A94982CA82CAFE0BA2ED0
:101E000020C078E0E72EF12C88248A94982CA82C06
:101E1000EFE1BE2E16C06FEF7FEFCB0197010F2CC5
:101E2000000C440B550B0E94F91249015A0109C0DC
:101E30008AE0E82EF12C69E9862E982CA82C69E11D
:101E4000B62E40E060E070E0CB0127010F2C000CC3
:101E500066087708FE0150ED352E310E29E0231576
:101E600070F42FEB210F2A3118F439EC332E06C011
:101E70002FE9210F2A3130F529EA322E310E232D98
:101E800030E02E153F05F4F44F3FC9F08616970653
:101E9000A806B90688F0A30192010E942E0D232DF9
:101EA00030E040E050E0620F731F841F951F6217FF
:101EB00073078407950710F44FEF01C041E02196A6
:101EC0001081C8CFC114D10451F0442311F02197DF
:101ED00003C001FF04C02297F601D183C08300FF35
:101EE00007C090958095709561957F4F8F4F9F4F5C
:101EF0004F3F79F482E290E09093C10C8093C00C44
:101F00003FEF2FEF9FEF0DC040E030E020E090E08A
:101F100008C0462F372F282F04C0103309F067CF91
:101F20005FCF642F732F822FDF91CF911F910F917D
:101F3000FF90EF90DF90CF90BF90AF909F908F90E9
:101F40007F906F905F904F903F90089591110C9407
:101F50004612803219F089508550C8F7089544EB35
:101F60005CE00C94CB0FFB01DC018D91019080199A
:101F70000110D9F3990B0895FB01DC014150504049
:101F800048F001900D920020C9F701C01D92415008
:101F90005040E0F70895FA01A191B081009719F43B
:101FA0001097E1F0CD01DC01CD010D90002011F47E
:101FB000C00113C0FB012191222319F02015D9F78C
:101FC000F3CFFB012191201519F41E92119606C042
:101FD0002223C1F70D900020A1F7D001FA01A193AF
:101FE000B0830895CF93DF93CDB7DEB7AE014B5FDB
:101FF0005F4FFA0161917191AF018091BC0C90919A
:10200000BD0C0E943C10DF91CF9108956091BC0CF3
:102010007091BD0C0C945F120F931F93CF93DF93BD
:10202000E091BC0CF091BD0C238121FF1BC08C0101
:10203000D0E0C0E0F80181918F016091BC0C7091FB
:10204000BD0CDB011896ED91FC911997882331F0B6
:102050000995892B79F3DFEFCFEFECCF8AE0099573
:10206000892B19F08FEF9FEF02C08D2F9C2FDF91EE
:10207000CF911F910F9108952F923F924F925F92AF
:102080006F927F928F929F92AF92BF92CF92DF9288
:10209000EF92FF920F931F93CF93DF93CDB7DEB7ED
:1020A0002B970FB6F894DEBF0FBECDBF6C017B013E
:1020B0008A01FC0117821682838181FFCCC1CE0187
:1020C00001963C01F6019381F70193FD859193FF01
:1020D00081917F01882309F4BAC1853239F493FDD7
:1020E000859193FF81917F01853229F4B60190E0BB
:1020F0000E945F12E7CF912C212C312CFFE1F315C8
:10210000D8F08B3279F038F4803279F08332A1F450
:10211000232D20611DC08D3261F0803369F4232DA1
:10212000216016C0832D8260382EE32DE4603E2EA0
:102130002AC0F32DF8601DC037FC2DC020ED280FFC
:102140002A3040F08E32B9F436FC81C1232D206450
:10215000322E19C036FE06C08AE0989E200D11244A
:10216000922E11C0EAE02E9E200D1124222EF32D76
:10217000F0623F2E08C08C3621F4832D8068382E03
:1021800002C0883641F4F70193FD859193FF819158
:102190007F018111B3CF982F9F7D9554933028F400
:1021A0000C5F1F4F9FE399830DC0833631F0833757
:1021B00071F0833509F059C021C0F801808189830D
:1021C0000E5F1F4F88248394912C530113C0280164
:1021D000F2E04F0E511CF801A080B18036FE03C022
:1021E000692D70E002C06FEF7FEFC5010E945412AD
:1021F0004C018201F32DFF773F2E16C0280122E00B
:10220000420E511CF801A080B18036FE03C0692D3A
:1022100070E002C06FEF7FEFC5010E9449124C01D0
:10222000F32DF0683F2E820133FC1BC0822D90E01D
:1022300088169906B0F4B60180E290E00E945F1221
:102240002A94F4CFF50137FC859137FE81915F0127
:10225000B60190E00E945F1221102A9421E0821AB8
:1022600091088114910471F7E8C0843611F0893621
:1022700041F5F80137FE07C0608171818281938149
:102280000C5F1F4F08C060817181072E000C880B06
:10229000990B0E5F1F4FF32DFF763F2E97FF09C05E
:1022A00090958095709561957F4F8F4F9F4FF06807
:1022B0003F2E2AE030E0A3010E949B12882E861850
:1022C00045C0853731F4232D2F7EB22E2AE030E031
:1022D00025C0932D997FB92E8F36C1F018F488351B
:1022E00079F0B5C0803719F0883721F0B0C0E92FF8
:1022F000E061BE2EB4FE0DC0FB2DF460BF2E09C000
:1023000034FE0AC0292F2660B22E06C028E030E035
:1023100005C020E130E002C020E132E0F801B7FE64
:1023200007C060817181828193810C5F1F4F06C05D
:102330006081718180E090E00E5F1F4FA3010E94D9
:102340009B12882E8618FB2DFF773F2E36FE0DC080
:10235000232D2E7FA22E891458F434FE0BC032FC9C
:1023600009C0832D8E7EA82E05C0B82CA32C03C0D7
:10237000B82C01C0B92CA4FE0FC0FE01E80DF11D60
:102380008081803321F49A2D997EA92E09C0A2FE66
:1023900006C0B394B39404C08A2D867809F0B39430
:1023A000A3FC11C0A0FE06C0B21488F4280C922C25
:1023B0009B180EC0B21460F4B60180E290E00E9457
:1023C0005F12B394F7CFB21418F42B1802C0982CF4
:1023D000212CA4FE10C0B60180E390E00E945F12A1
:1023E000A2FE17C0A1FC03C088E790E002C088E508
:1023F00090E0B6010CC08A2D867859F0A1FE02C08B
:102400008BE201C080E2A7FC8DE2B60190E00E9461
:102410005F12891438F4B60180E390E00E945F12E5
:102420009A94F7CF8A94F301E80DF11D8081B601EB
:1024300090E00E945F128110F5CF222009F442CE75
:10244000B60180E290E00E945F122A94F6CFF60176
:102450008681978102C08FEF9FEF2B960FB6F8947D
:10246000DEBF0FBECDBFDF91CF911F910F91FF90C7
:10247000EF90DF90CF90BF90AF909F908F907F9024
:102480006F905F904F903F902F90089599278827E5
:102490000895FC010590615070400110D8F78095B7
:1024A00090958E0F9F1F0895FC0161507040019020
:1024B0000110D8F7809590958E0F9F1F08950F9368
:1024C0001F93CF93DF93FB01238121FD03C08FEF87
:1024D0009FEF2CC022FF16C0468157812481358191
:1024E0004217530744F4A081B1819D012F5F3F4FF4
:1024F000318320838C93268137812F5F3F4F378331
:10250000268314C08B01EC01FB010084F185E02DD2
:102510000995892BE1F6D80116968D919C91179714
:10252000019617969C938E931697CE01DF91CF91CB
:102530001F910F910895FA01AA27283051F12031F7
:1025400081F1E8946F936E7F6E5F7F4F8F4F9F4F47
:10255000AF4FB1E03ED0B4E03CD0670F781F891F89
:102560009A1FA11D680F791F8A1F911DA11D6A0F57
:10257000711D811D911DA11D20D009F468943F910A
:102580002AE0269F11243019305D3193DEF6CF0109
:102590000895462F4770405D4193B3E00FD0C9F7CF
:1025A000F6CF462F4F70405D4A3318F0495D31FD3C
:1025B0004052419302D0A9F7EACFB4E0A69597958F
:1025C000879577956795BA95C9F700976105710565
:1025D00008959B01AC010A2E0694579547953795AF
:1025E0002795BA95C9F7620F731F841F951FA01D09
:1025F0000895A1E21A2EAA1BBB1BFD010DC0AA1F44
:10260000BB1FEE1FFF1FA217B307E407F50720F05B
:10261000A21BB30BE40BF50B661F771F881F991FD6
:102620001A9469F760957095809590959B01AC011F
:06263000BD01CF01089579
:102660000E0513056E00E406E80603023A0AE806C2
:102670003403E70AEC0A020ABE0AC50A470A7A0AC4
:102680007F0ABD09D30AD80A430A000000030000EC
:102690000000450000000000310535056A004805CE
:1026A0004E05660066056E056200760579055E00DA
:1026B000FF10C20C20000007040708070C071007D2
:1026C000140718071C072007240728072C070000F9
:1026D0002110422063308440A550C660E770088115
:1026E00029914AA16BB18CC1ADD1CEE1EFF131128C
:1026F000100273325222B5529442F772D662399365
:1027000018837BB35AA3BDD39CC3FFF3DEE36224DB
:10271000433420040114E664C774A44485546AA5B4
:102720004BB528850995EEE5CFF5ACC58DD553366B
:10273000722611163006D776F6669556B4465BB704
:102740007AA719973887DFF7FEE79DD7BCC7C4483B
:10275000E5588668A7784008611802282338CCC954
:10276000EDD98EE9AFF9488969990AA92BB9F55ACB
:10277000D44AB77A966A711A500A333A122AFDDBA4
:10278000DCCBBFFB9EEB799B588B3BBB1AABA66C9B
:10279000877CE44CC55C222C033C600C411CAEEDF4
:1027A0008FFDECCDCDDD2AAD0BBD688D499D977EAB
:1027B000B66ED55EF44E133E322E511E700E9FFF44
:1027C000BEEFDDDFFCCF1BBF3AAF599F788F8891FA
:1027D000A981CAB1EBA10CD12DC14EF16FE18010DE
:1027E000A100C230E3200450254046706760B983E1
:1027F0009893FBA3DAB33DC31CD37FE35EF3B1022E
:102800009012F322D2323542145277625672EAB5F0
:10281000CBA5A89589856EF54FE52CD50DC5E2347D
:10282000C324A01481046674476424540544DBA7C0
:10283000FAB79987B8975FE77EF71DC73CD7D326CD
:10284000F2369106B01657667676154634564CD950
:102850006DC90EF92FE9C899E9898AB9ABA944581D
:10286000654806782768C018E1088238A3287DCB20
:102870005CDB3FEB1EFBF98BD89BBBAB9ABB754A6D
:10288000545A376A167AF10AD01AB32A923A2EFDB0
:102890000FED6CDD4DCDAABD8BADE89DC98D267CBD
:1028A000076C645C454CA23C832CE01CC10C1FEF00
:1028B0003EFF5DCF7CDF9BAFBABFD98FF89F176E0D
:1028C000367E554E745E932EB23ED10EF01E000938
:1028D000121B242D363F48415A536C657E771910E0
:1028E0000B023D342F265158434A757C676E323BAC
:1028F0002029161F040D7A7368615E574C452B2200
:1029000039300F061D14636A7178474E555C646D4B
:10291000767F4049525B2C253E3708011A137D749F
:102920006F6659504B42353C272E1118030A565FEB
:10293000444D727B60691E170C053A3328214F46BF
:102940005D546B627970070E151C232A313841489B
:10295000535A656C777E09001B122D243F3658515F
:102960004A437C756E671019020B343D262F737A2B
:102970006168575E454C3B3229201F160D046A637F
:1029800078714E475C55222B3039060F141D252CCB
:10299000373E0108131A6D647F7649405B523C351F
:1029A0002E2718110A03747D666F5059424B171E6B
:1029B000050C333A21285F564D447B7269600E073F
:1029C0001C152A233831464F545D626B7079486577
:1029D000726520697320646F5F73662066756E632D
:1029E00074696F6E200D0A00486572652069732056
:1029F000646F5F686973746F72792066756E637453
:102A0000696F6E200D0A0048657265206973206445
:102A10006F5F636F6D6963732066756E6374696F52
:102A20006E200D0A004865726520697320646F5F2F
:102A30006172742066756E6374696F6E200D0A0092
:102A4000596F752063616E2073656C656374206FC8
:102A50006E65206F662062656C6F77206974656DA6
:102A60002000252D313073203A2025730A00626F33
:102A70006F6B004865726520697320426F6F6B2031
:102A800053656C656374696F6E20636F726E6572F7
:102A900000617274004172747320262050686F7454
:102AA0006F67726170687900636F6D696300436F6F
:102AB0006D69637320262047726170686963204ED8
:102AC0006F76656C7300686973746F72790048691A
:102AD00073746F727900736600536369656E636522
:102AE0002046696374696F6E002009005B434C499E
:102AF0005D2420006172676320657175616C7320CD
:102B000030200D0A00596F7520656E74657265641A
:102B1000207772696E6720636F6D6D616E643A2015
:102B2000222573220A000A20434C4920436F6D6D11
:102B3000616E6420496E746572707265746572208E
:102B400069732072756E6E696E67202E2E2E20219D
:102B50002121000A0A43494420726567697374653C
:102B6000723A005265616420434944204572726F95
:102B70007220005261772044617461203D3D3E2007
:102B80002530385820253038582025303858202511
:102B90003038580A0A004D616E756661637475724B
:102BA0006572204944202020203A20253032580ADE
:102BB000004F454D2F4170706C69636174696F6E91
:102BC000204944203A20256325630A0050726F642F
:102BD000756374204E616D65202020202020203AEE
:102BE00020256325632563256325630A0050726FE2
:102BF00064756374205265766973696F6E20202056
:102C00003A2025642E25640A0050726F647563743F
:102C10002053657269616C204E6F2E203A2025305A
:102C20003658253032580A004D616E7566616374FE
:102C30007572696E672044617465203A202573209F
:102C400025640A006369640052656164204353444B
:102C50002072656769737465722076616C756500B2
:102C60004A414E00464542004D41520041505200FB
:102C70004D4159004A554E004A554C0041554700B8
:102C8000534550004F4354004E4F560044454300B7
:102C90005265616420435344206572726F72004331
:102CA00053442056657273696F6E20312E30005484
:102CB0004141432020202020202020202020203A95
:102CC00020253032580A004E534143202020202036
:102CD000202020202020203A20253032580A00547D
:102CE00052414E5F53504545442020202020203A39
:102CF00020253032580A0043434320202020202042
:102D0000202020202020203A20253033580A00524D
:102D1000445F424C5F4C454E202020202020203A2A
:102D2000202558282575290A0052445F424C5F50DF
:102D30004152542020202020203A2025580A0057B4
:102D4000525F424C4B5F4D4953414C49474E203AEC
:102D50002025580A0052445F424C4B5F4D49534175
:102D60004C49474E203A2025580A004453525F49A7
:102D70004D502020202020202020203A2025580AB5
:102D8000004353495A452020202020202020202085
:102D9000203A20253033580A005644445F525F439E
:102DA00055525F4D494E2020203A2025580A0056A2
:102DB00044445F525F4355525F4D41582020203AB2
:102DC0002025580A005644445F575F4355525F4DD3
:102DD000494E2020203A2025580A005644445F5787
:102DE0005F4355525F4D41582020203A2025580A14
:102DF00000435F53495A455F4D554C5420202020D5
:102E0000203A202558282575290A00455241534566
:102E10005F424C4B5F454E202020203A2025580A27
:102E200000534543544F525F53495A4520202020B8
:102E3000203A20253032580A0057505F4752505FE1
:102E400053495A4520202020203A20253032580A64
:102E50000057505F4752505F454E202020202020D1
:102E6000203A2025580A005232575F464143544FBA
:102E7000522020202020203A2025580A0057525F57
:102E8000424C5F4C454E202020202020203A202517
:102E9000580A0057525F424C5F5041525420202044
:102EA0002020203A2025580A0046494C455F464DCF
:102EB000545F475250202020203A2025580A0043D2
:102EC0004F50592020202020202020202020203A50
:102ED0002025580A005045524D5F57525F50524FBF
:102EE00054202020203A2025580A00544D505F5786
:102EF000525F50524F5420202020203A2025580A5B
:102F00000046494C455F464F524D415420202020F9
:102F1000203A2025580A000A4D656D6F72792043CA
:102F200061706163697479203A2025750A0A00434B
:102F300053442056657273696F6E20322E300052F2
:102F4000445F424C5F4C454E202020202020203AF8
:102F50002025580A004353495A452020202020208C
:102F600020202020203A20253036580A000A4D65BE
:102F70006D6F7279204361706163697479203A20C2
:102F8000256C6C750A0A0043534420766572736998
:102F90006F6E204572726F72200063736400526519
:102FA00061642053696E676C6520426C6F636B20AF
:102FB0005B307825585D0A005265616420626C6F51
:102FC000636B206572726F7220000A253034583AA4
:102FD000200025303258007C200072656164005268
:102FE000656164205344204D656D6F7279204461A2
:102FF000746100252D313073203A202573200A009A
:103000004865726520697320746F79732000486584
:103010007265206973206D656469617320006D6558
:103020006469617300445644732026204D6F7669AD
:10303000657300746F797300546F7973202620488C
:103040006F62626965730068656C700044697370D3
:103050006C617920434C4920636F6D6D616E642013
:103060007573616765001B5B324A1B5B313B3148FE
:103070000031393A33303A31300046656220323817
:103080002032303233000A4D6372696F205344207E
:103090004D656D6F72792E202573202573200A00EF
:1030A000434C492054455354204F6E6C696E652043
:1030B0004D61726B65740072312064617461203AF5
:1030C0002025780A0048657265206973204E4F5F9D
:1030D000434152445F45525200486572652069730E
:1030E00020434F4D4D5F455252004865726520693F
:1030F000732054494D454F55540048657265206909
:103100007320526561645F646174610043524331AE
:1031100036206D69736D6174636865642066004371
:103120004D4430204661696C20005344204D656D4C
:103130006F727920436172642056657273696F6E95
:103140003A200041434D443431204661696C0053BC
:1031500044204D656D6F7279204361726420436134
:10316000706163697479203A200053444843206FAA
:10317000722053445843005374616E64617264203A
:103180005344004D6963726F534420696E697469DA
:10319000616C697A6564202E2E2E212100535049DE
:0E31A00020696E697469616C697A656400006B
:00000001FF
